{
  "contractName": "artCollectible",
  "abi": [
    {
      "inputs": [],
      "stateMutability": "nonpayable",
      "type": "constructor"
    },
    {
      "anonymous": false,
      "inputs": [
        {
          "indexed": true,
          "internalType": "address",
          "name": "owner",
          "type": "address"
        },
        {
          "indexed": true,
          "internalType": "address",
          "name": "approved",
          "type": "address"
        },
        {
          "indexed": true,
          "internalType": "uint256",
          "name": "tokenId",
          "type": "uint256"
        }
      ],
      "name": "Approval",
      "type": "event"
    },
    {
      "anonymous": false,
      "inputs": [
        {
          "indexed": true,
          "internalType": "address",
          "name": "owner",
          "type": "address"
        },
        {
          "indexed": true,
          "internalType": "address",
          "name": "operator",
          "type": "address"
        },
        {
          "indexed": false,
          "internalType": "bool",
          "name": "approved",
          "type": "bool"
        }
      ],
      "name": "ApprovalForAll",
      "type": "event"
    },
    {
      "anonymous": false,
      "inputs": [
        {
          "indexed": true,
          "internalType": "address",
          "name": "previousOwner",
          "type": "address"
        },
        {
          "indexed": true,
          "internalType": "address",
          "name": "newOwner",
          "type": "address"
        }
      ],
      "name": "OwnershipTransferred",
      "type": "event"
    },
    {
      "anonymous": false,
      "inputs": [
        {
          "indexed": true,
          "internalType": "address",
          "name": "from",
          "type": "address"
        },
        {
          "indexed": true,
          "internalType": "address",
          "name": "to",
          "type": "address"
        },
        {
          "indexed": true,
          "internalType": "uint256",
          "name": "tokenId",
          "type": "uint256"
        }
      ],
      "name": "Transfer",
      "type": "event"
    },
    {
      "inputs": [
        {
          "internalType": "address",
          "name": "to",
          "type": "address"
        },
        {
          "internalType": "uint256",
          "name": "tokenId",
          "type": "uint256"
        }
      ],
      "name": "approve",
      "outputs": [],
      "stateMutability": "nonpayable",
      "type": "function"
    },
    {
      "inputs": [
        {
          "internalType": "address",
          "name": "owner",
          "type": "address"
        }
      ],
      "name": "balanceOf",
      "outputs": [
        {
          "internalType": "uint256",
          "name": "",
          "type": "uint256"
        }
      ],
      "stateMutability": "view",
      "type": "function"
    },
    {
      "inputs": [
        {
          "internalType": "uint256",
          "name": "tokenId",
          "type": "uint256"
        }
      ],
      "name": "getApproved",
      "outputs": [
        {
          "internalType": "address",
          "name": "",
          "type": "address"
        }
      ],
      "stateMutability": "view",
      "type": "function"
    },
    {
      "inputs": [
        {
          "internalType": "address",
          "name": "owner",
          "type": "address"
        },
        {
          "internalType": "address",
          "name": "operator",
          "type": "address"
        }
      ],
      "name": "isApprovedForAll",
      "outputs": [
        {
          "internalType": "bool",
          "name": "",
          "type": "bool"
        }
      ],
      "stateMutability": "view",
      "type": "function"
    },
    {
      "inputs": [],
      "name": "name",
      "outputs": [
        {
          "internalType": "string",
          "name": "",
          "type": "string"
        }
      ],
      "stateMutability": "view",
      "type": "function"
    },
    {
      "inputs": [],
      "name": "owner",
      "outputs": [
        {
          "internalType": "address",
          "name": "",
          "type": "address"
        }
      ],
      "stateMutability": "view",
      "type": "function"
    },
    {
      "inputs": [
        {
          "internalType": "uint256",
          "name": "tokenId",
          "type": "uint256"
        }
      ],
      "name": "ownerOf",
      "outputs": [
        {
          "internalType": "address",
          "name": "",
          "type": "address"
        }
      ],
      "stateMutability": "view",
      "type": "function"
    },
    {
      "inputs": [],
      "name": "renounceOwnership",
      "outputs": [],
      "stateMutability": "nonpayable",
      "type": "function"
    },
    {
      "inputs": [
        {
          "internalType": "address",
          "name": "from",
          "type": "address"
        },
        {
          "internalType": "address",
          "name": "to",
          "type": "address"
        },
        {
          "internalType": "uint256",
          "name": "tokenId",
          "type": "uint256"
        }
      ],
      "name": "safeTransferFrom",
      "outputs": [],
      "stateMutability": "nonpayable",
      "type": "function"
    },
    {
      "inputs": [
        {
          "internalType": "address",
          "name": "from",
          "type": "address"
        },
        {
          "internalType": "address",
          "name": "to",
          "type": "address"
        },
        {
          "internalType": "uint256",
          "name": "tokenId",
          "type": "uint256"
        },
        {
          "internalType": "bytes",
          "name": "_data",
          "type": "bytes"
        }
      ],
      "name": "safeTransferFrom",
      "outputs": [],
      "stateMutability": "nonpayable",
      "type": "function"
    },
    {
      "inputs": [
        {
          "internalType": "address",
          "name": "operator",
          "type": "address"
        },
        {
          "internalType": "bool",
          "name": "approved",
          "type": "bool"
        }
      ],
      "name": "setApprovalForAll",
      "outputs": [],
      "stateMutability": "nonpayable",
      "type": "function"
    },
    {
      "inputs": [
        {
          "internalType": "bytes4",
          "name": "interfaceId",
          "type": "bytes4"
        }
      ],
      "name": "supportsInterface",
      "outputs": [
        {
          "internalType": "bool",
          "name": "",
          "type": "bool"
        }
      ],
      "stateMutability": "view",
      "type": "function"
    },
    {
      "inputs": [],
      "name": "symbol",
      "outputs": [
        {
          "internalType": "string",
          "name": "",
          "type": "string"
        }
      ],
      "stateMutability": "view",
      "type": "function"
    },
    {
      "inputs": [
        {
          "internalType": "address",
          "name": "from",
          "type": "address"
        },
        {
          "internalType": "address",
          "name": "to",
          "type": "address"
        },
        {
          "internalType": "uint256",
          "name": "tokenId",
          "type": "uint256"
        }
      ],
      "name": "transferFrom",
      "outputs": [],
      "stateMutability": "nonpayable",
      "type": "function"
    },
    {
      "inputs": [
        {
          "internalType": "address",
          "name": "newOwner",
          "type": "address"
        }
      ],
      "name": "transferOwnership",
      "outputs": [],
      "stateMutability": "nonpayable",
      "type": "function"
    },
    {
      "inputs": [
        {
          "internalType": "string",
          "name": "baseURI_",
          "type": "string"
        }
      ],
      "name": "setBaseURI",
      "outputs": [],
      "stateMutability": "nonpayable",
      "type": "function"
    },
    {
      "inputs": [
        {
          "internalType": "uint256",
          "name": "tokenId",
          "type": "uint256"
        }
      ],
      "name": "tokenURI",
      "outputs": [
        {
          "internalType": "string",
          "name": "",
          "type": "string"
        }
      ],
      "stateMutability": "view",
      "type": "function"
    },
    {
      "inputs": [
        {
          "internalType": "string",
          "name": "tokenURI",
          "type": "string"
        }
      ],
      "name": "claimItem",
      "outputs": [
        {
          "internalType": "uint256",
          "name": "",
          "type": "uint256"
        }
      ],
      "stateMutability": "nonpayable",
      "type": "function"
    }
  ],
  "bytecode": "0x60806040523480156200001157600080fd5b506040518060400160405280600881526020017f546f6b656e732d580000000000000000000000000000000000000000000000008152506040518060400160405280600381526020017f544b5800000000000000000000000000000000000000000000000000000000008152506200009e62000092620000d860201b60201c565b620000e060201b60201c565b8160019080519060200190620000b6929190620001a4565b508060029080519060200190620000cf929190620001a4565b505050620002b9565b600033905090565b60008060009054906101000a900473ffffffffffffffffffffffffffffffffffffffff169050816000806101000a81548173ffffffffffffffffffffffffffffffffffffffff021916908373ffffffffffffffffffffffffffffffffffffffff1602179055508173ffffffffffffffffffffffffffffffffffffffff168173ffffffffffffffffffffffffffffffffffffffff167f8be0079c531659141344cd1fd0a4f28419497f9722a3daafe3b4186f6b6457e060405160405180910390a35050565b828054620001b29062000283565b90600052602060002090601f016020900481019282620001d6576000855562000222565b82601f10620001f157805160ff191683800117855562000222565b8280016001018555821562000222579182015b828111156200022157825182559160200191906001019062000204565b5b50905062000231919062000235565b5090565b5b808211156200025057600081600090555060010162000236565b5090565b7f4e487b7100000000000000000000000000000000000000000000000000000000600052602260045260246000fd5b600060028204905060018216806200029c57607f821691505b60208210811415620002b357620002b262000254565b5b50919050565b612ff880620002c96000396000f3fe608060405234801561001057600080fd5b50600436106101165760003560e01c8063715018a6116100a2578063a850e8bd11610071578063a850e8bd146102cb578063b88d4fde146102fb578063c87b56dd14610317578063e985e9c514610347578063f2fde38b1461037757610116565b8063715018a6146102695780638da5cb5b1461027357806395d89b4114610291578063a22cb465146102af57610116565b806323b872dd116100e957806323b872dd146101b557806342842e0e146101d157806355f804b3146101ed5780636352211e1461020957806370a082311461023957610116565b806301ffc9a71461011b57806306fdde031461014b578063081812fc14610169578063095ea7b314610199575b600080fd5b61013560048036038101906101309190611d01565b610393565b6040516101429190611d49565b60405180910390f35b610153610475565b6040516101609190611dfd565b60405180910390f35b610183600480360381019061017e9190611e55565b610507565b6040516101909190611ec3565b60405180910390f35b6101b360048036038101906101ae9190611f0a565b61058c565b005b6101cf60048036038101906101ca9190611f4a565b6106a4565b005b6101eb60048036038101906101e69190611f4a565b610704565b005b610207600480360381019061020291906120d2565b610724565b005b610223600480360381019061021e9190611e55565b6107ba565b6040516102309190611ec3565b60405180910390f35b610253600480360381019061024e919061211b565b61086c565b6040516102609190612157565b60405180910390f35b610271610924565b005b61027b6109ac565b6040516102889190611ec3565b60405180910390f35b6102996109d5565b6040516102a69190611dfd565b60405180910390f35b6102c960048036038101906102c4919061219e565b610a67565b005b6102e560048036038101906102e091906120d2565b610be8565b6040516102f29190612157565b60405180910390f35b6103156004803603810190610310919061227f565b610c1f565b005b610331600480360381019061032c9190611e55565b610c81565b60405161033e9190611dfd565b60405180910390f35b610361600480360381019061035c9190612302565b610df4565b60405161036e9190611d49565b60405180910390f35b610391600480360381019061038c919061211b565b610e88565b005b60007f80ac58cd000000000000000000000000000000000000000000000000000000007bffffffffffffffffffffffffffffffffffffffffffffffffffffffff1916827bffffffffffffffffffffffffffffffffffffffffffffffffffffffff1916148061045e57507f5b5e139f000000000000000000000000000000000000000000000000000000007bffffffffffffffffffffffffffffffffffffffffffffffffffffffff1916827bffffffffffffffffffffffffffffffffffffffffffffffffffffffff1916145b8061046e575061046d82610f80565b5b9050919050565b60606001805461048490612371565b80601f01602080910402602001604051908101604052809291908181526020018280546104b090612371565b80156104fd5780601f106104d2576101008083540402835291602001916104fd565b820191906000526020600020905b8154815290600101906020018083116104e057829003601f168201915b5050505050905090565b600061051282610fea565b610551576040517f08c379a000000000000000000000000000000000000000000000000000000000815260040161054890612415565b60405180910390fd5b6005600083815260200190815260200160002060009054906101000a900473ffffffffffffffffffffffffffffffffffffffff169050919050565b6000610597826107ba565b90508073ffffffffffffffffffffffffffffffffffffffff168373ffffffffffffffffffffffffffffffffffffffff161415610608576040517f08c379a00000000000000000000000000000000000000000000000000000000081526004016105ff906124a7565b60405180910390fd5b8073ffffffffffffffffffffffffffffffffffffffff16610627611056565b73ffffffffffffffffffffffffffffffffffffffff161480610656575061065581610650611056565b610df4565b5b610695576040517f08c379a000000000000000000000000000000000000000000000000000000000815260040161068c90612539565b60405180910390fd5b61069f838361105e565b505050565b6106b56106af611056565b82611117565b6106f4576040517f08c379a00000000000000000000000000000000000000000000000000000000081526004016106eb906125cb565b60405180910390fd5b6106ff8383836111f5565b505050565b61071f83838360405180602001604052806000815250610c1f565b505050565b61072c611056565b73ffffffffffffffffffffffffffffffffffffffff1661074a6109ac565b73ffffffffffffffffffffffffffffffffffffffff16146107a0576040517f08c379a000000000000000000000000000000000000000000000000000000000815260040161079790612637565b60405180910390fd5b80600990805190602001906107b6929190611bf2565b5050565b6000806003600084815260200190815260200160002060009054906101000a900473ffffffffffffffffffffffffffffffffffffffff169050600073ffffffffffffffffffffffffffffffffffffffff168173ffffffffffffffffffffffffffffffffffffffff161415610863576040517f08c379a000000000000000000000000000000000000000000000000000000000815260040161085a906126c9565b60405180910390fd5b80915050919050565b60008073ffffffffffffffffffffffffffffffffffffffff168273ffffffffffffffffffffffffffffffffffffffff1614156108dd576040517f08c379a00000000000000000000000000000000000000000000000000000000081526004016108d49061275b565b60405180910390fd5b600460008373ffffffffffffffffffffffffffffffffffffffff1673ffffffffffffffffffffffffffffffffffffffff168152602001908152602001600020549050919050565b61092c611056565b73ffffffffffffffffffffffffffffffffffffffff1661094a6109ac565b73ffffffffffffffffffffffffffffffffffffffff16146109a0576040517f08c379a000000000000000000000000000000000000000000000000000000000815260040161099790612637565b60405180910390fd5b6109aa6000611451565b565b60008060009054906101000a900473ffffffffffffffffffffffffffffffffffffffff16905090565b6060600280546109e490612371565b80601f0160208091040260200160405190810160405280929190818152602001828054610a1090612371565b8015610a5d5780601f10610a3257610100808354040283529160200191610a5d565b820191906000526020600020905b815481529060010190602001808311610a4057829003601f168201915b5050505050905090565b610a6f611056565b73ffffffffffffffffffffffffffffffffffffffff168273ffffffffffffffffffffffffffffffffffffffff161415610add576040517f08c379a0000000000000000000000000000000000000000000000000000000008152600401610ad4906127c7565b60405180910390fd5b8060066000610aea611056565b73ffffffffffffffffffffffffffffffffffffffff1673ffffffffffffffffffffffffffffffffffffffff16815260200190815260200160002060008473ffffffffffffffffffffffffffffffffffffffff1673ffffffffffffffffffffffffffffffffffffffff16815260200190815260200160002060006101000a81548160ff0219169083151502179055508173ffffffffffffffffffffffffffffffffffffffff16610b97611056565b73ffffffffffffffffffffffffffffffffffffffff167f17307eab39ab6107e8899845ad3d59bd9653f200f220920489ca2b5937696c3183604051610bdc9190611d49565b60405180910390a35050565b6000610bf46007611515565b6000610c00600761152b565b9050610c0c3382611539565b610c168184611557565b80915050919050565b610c30610c2a611056565b83611117565b610c6f576040517f08c379a0000000000000000000000000000000000000000000000000000000008152600401610c66906125cb565b60405180910390fd5b610c7b848484846115cb565b50505050565b6060610c8c82610fea565b610ccb576040517f08c379a0000000000000000000000000000000000000000000000000000000008152600401610cc290612859565b60405180910390fd5b6000600860008481526020019081526020016000208054610ceb90612371565b80601f0160208091040260200160405190810160405280929190818152602001828054610d1790612371565b8015610d645780601f10610d3957610100808354040283529160200191610d64565b820191906000526020600020905b815481529060010190602001808311610d4757829003601f168201915b505050505090506000610d75611627565b9050600081511415610d8b578192505050610def565b600082511115610dc0578082604051602001610da89291906128b5565b60405160208183030381529060405292505050610def565b80610dca856116b9565b604051602001610ddb9291906128b5565b604051602081830303815290604052925050505b919050565b6000600660008473ffffffffffffffffffffffffffffffffffffffff1673ffffffffffffffffffffffffffffffffffffffff16815260200190815260200160002060008373ffffffffffffffffffffffffffffffffffffffff1673ffffffffffffffffffffffffffffffffffffffff16815260200190815260200160002060009054906101000a900460ff16905092915050565b610e90611056565b73ffffffffffffffffffffffffffffffffffffffff16610eae6109ac565b73ffffffffffffffffffffffffffffffffffffffff1614610f04576040517f08c379a0000000000000000000000000000000000000000000000000000000008152600401610efb90612637565b60405180910390fd5b600073ffffffffffffffffffffffffffffffffffffffff168173ffffffffffffffffffffffffffffffffffffffff161415610f74576040517f08c379a0000000000000000000000000000000000000000000000000000000008152600401610f6b9061294b565b60405180910390fd5b610f7d81611451565b50565b60007f01ffc9a7000000000000000000000000000000000000000000000000000000007bffffffffffffffffffffffffffffffffffffffffffffffffffffffff1916827bffffffffffffffffffffffffffffffffffffffffffffffffffffffff1916149050919050565b60008073ffffffffffffffffffffffffffffffffffffffff166003600084815260200190815260200160002060009054906101000a900473ffffffffffffffffffffffffffffffffffffffff1673ffffffffffffffffffffffffffffffffffffffff1614159050919050565b600033905090565b816005600083815260200190815260200160002060006101000a81548173ffffffffffffffffffffffffffffffffffffffff021916908373ffffffffffffffffffffffffffffffffffffffff160217905550808273ffffffffffffffffffffffffffffffffffffffff166110d1836107ba565b73ffffffffffffffffffffffffffffffffffffffff167f8c5be1e5ebec7d5bd14f71427d1e84f3dd0314c0f7b2291e5b200ac8c7c3b92560405160405180910390a45050565b600061112282610fea565b611161576040517f08c379a0000000000000000000000000000000000000000000000000000000008152600401611158906129dd565b60405180910390fd5b600061116c836107ba565b90508073ffffffffffffffffffffffffffffffffffffffff168473ffffffffffffffffffffffffffffffffffffffff1614806111db57508373ffffffffffffffffffffffffffffffffffffffff166111c384610507565b73ffffffffffffffffffffffffffffffffffffffff16145b806111ec57506111eb8185610df4565b5b91505092915050565b8273ffffffffffffffffffffffffffffffffffffffff16611215826107ba565b73ffffffffffffffffffffffffffffffffffffffff161461126b576040517f08c379a000000000000000000000000000000000000000000000000000000000815260040161126290612a6f565b60405180910390fd5b600073ffffffffffffffffffffffffffffffffffffffff168273ffffffffffffffffffffffffffffffffffffffff1614156112db576040517f08c379a00000000000000000000000000000000000000000000000000000000081526004016112d290612b01565b60405180910390fd5b6112e683838361181a565b6112f160008261105e565b6001600460008573ffffffffffffffffffffffffffffffffffffffff1673ffffffffffffffffffffffffffffffffffffffff16815260200190815260200160002060008282546113419190612b50565b925050819055506001600460008473ffffffffffffffffffffffffffffffffffffffff1673ffffffffffffffffffffffffffffffffffffffff16815260200190815260200160002060008282546113989190612b84565b92505081905550816003600083815260200190815260200160002060006101000a81548173ffffffffffffffffffffffffffffffffffffffff021916908373ffffffffffffffffffffffffffffffffffffffff160217905550808273ffffffffffffffffffffffffffffffffffffffff168473ffffffffffffffffffffffffffffffffffffffff167fddf252ad1be2c89b69c2b068fc378daa952ba7f163c4a11628f55a4df523b3ef60405160405180910390a4505050565b60008060009054906101000a900473ffffffffffffffffffffffffffffffffffffffff169050816000806101000a81548173ffffffffffffffffffffffffffffffffffffffff021916908373ffffffffffffffffffffffffffffffffffffffff1602179055508173ffffffffffffffffffffffffffffffffffffffff168173ffffffffffffffffffffffffffffffffffffffff167f8be0079c531659141344cd1fd0a4f28419497f9722a3daafe3b4186f6b6457e060405160405180910390a35050565b6001816000016000828254019250508190555050565b600081600001549050919050565b61155382826040518060200160405280600081525061181f565b5050565b61156082610fea565b61159f576040517f08c379a000000000000000000000000000000000000000000000000000000000815260040161159690612c4c565b60405180910390fd5b806008600084815260200190815260200160002090805190602001906115c6929190611bf2565b505050565b6115d68484846111f5565b6115e28484848461187a565b611621576040517f08c379a000000000000000000000000000000000000000000000000000000000815260040161161890612cde565b60405180910390fd5b50505050565b60606009805461163690612371565b80601f016020809104026020016040519081016040528092919081815260200182805461166290612371565b80156116af5780601f10611684576101008083540402835291602001916116af565b820191906000526020600020905b81548152906001019060200180831161169257829003601f168201915b5050505050905090565b60606000821415611701576040518060400160405280600181526020017f30000000000000000000000000000000000000000000000000000000000000008152509050611815565b600082905060005b6000821461173357808061171c90612cfe565b915050600a8261172c9190612d76565b9150611709565b60008167ffffffffffffffff81111561174f5761174e611fa7565b5b6040519080825280601f01601f1916602001820160405280156117815781602001600182028036833780820191505090505b5090505b6000851461180e5760018261179a9190612b50565b9150600a856117a99190612da7565b60306117b59190612b84565b60f81b8183815181106117cb576117ca612dd8565b5b60200101907effffffffffffffffffffffffffffffffffffffffffffffffffffffffffffff1916908160001a905350600a856118079190612d76565b9450611785565b8093505050505b919050565b505050565b6118298383611a11565b611836600084848461187a565b611875576040517f08c379a000000000000000000000000000000000000000000000000000000000815260040161186c90612cde565b60405180910390fd5b505050565b600061189b8473ffffffffffffffffffffffffffffffffffffffff16611bdf565b15611a04578373ffffffffffffffffffffffffffffffffffffffff1663150b7a026118c4611056565b8786866040518563ffffffff1660e01b81526004016118e69493929190612e5c565b602060405180830381600087803b15801561190057600080fd5b505af192505050801561193157506040513d601f19601f8201168201806040525081019061192e9190612ebd565b60015b6119b4573d8060008114611961576040519150601f19603f3d011682016040523d82523d6000602084013e611966565b606091505b506000815114156119ac576040517f08c379a00000000000000000000000000000000000000000000000000000000081526004016119a390612cde565b60405180910390fd5b805181602001fd5b63150b7a0260e01b7bffffffffffffffffffffffffffffffffffffffffffffffffffffffff1916817bffffffffffffffffffffffffffffffffffffffffffffffffffffffff191614915050611a09565b600190505b949350505050565b600073ffffffffffffffffffffffffffffffffffffffff168273ffffffffffffffffffffffffffffffffffffffff161415611a81576040517f08c379a0000000000000000000000000000000000000000000000000000000008152600401611a7890612f36565b60405180910390fd5b611a8a81610fea565b15611aca576040517f08c379a0000000000000000000000000000000000000000000000000000000008152600401611ac190612fa2565b60405180910390fd5b611ad66000838361181a565b6001600460008473ffffffffffffffffffffffffffffffffffffffff1673ffffffffffffffffffffffffffffffffffffffff1681526020019081526020016000206000828254611b269190612b84565b92505081905550816003600083815260200190815260200160002060006101000a81548173ffffffffffffffffffffffffffffffffffffffff021916908373ffffffffffffffffffffffffffffffffffffffff160217905550808273ffffffffffffffffffffffffffffffffffffffff16600073ffffffffffffffffffffffffffffffffffffffff167fddf252ad1be2c89b69c2b068fc378daa952ba7f163c4a11628f55a4df523b3ef60405160405180910390a45050565b600080823b905060008111915050919050565b828054611bfe90612371565b90600052602060002090601f016020900481019282611c205760008555611c67565b82601f10611c3957805160ff1916838001178555611c67565b82800160010185558215611c67579182015b82811115611c66578251825591602001919060010190611c4b565b5b509050611c749190611c78565b5090565b5b80821115611c91576000816000905550600101611c79565b5090565b6000604051905090565b600080fd5b600080fd5b60007fffffffff0000000000000000000000000000000000000000000000000000000082169050919050565b611cde81611ca9565b8114611ce957600080fd5b50565b600081359050611cfb81611cd5565b92915050565b600060208284031215611d1757611d16611c9f565b5b6000611d2584828501611cec565b91505092915050565b60008115159050919050565b611d4381611d2e565b82525050565b6000602082019050611d5e6000830184611d3a565b92915050565b600081519050919050565b600082825260208201905092915050565b60005b83811015611d9e578082015181840152602081019050611d83565b83811115611dad576000848401525b50505050565b6000601f19601f8301169050919050565b6000611dcf82611d64565b611dd98185611d6f565b9350611de9818560208601611d80565b611df281611db3565b840191505092915050565b60006020820190508181036000830152611e178184611dc4565b905092915050565b6000819050919050565b611e3281611e1f565b8114611e3d57600080fd5b50565b600081359050611e4f81611e29565b92915050565b600060208284031215611e6b57611e6a611c9f565b5b6000611e7984828501611e40565b91505092915050565b600073ffffffffffffffffffffffffffffffffffffffff82169050919050565b6000611ead82611e82565b9050919050565b611ebd81611ea2565b82525050565b6000602082019050611ed86000830184611eb4565b92915050565b611ee781611ea2565b8114611ef257600080fd5b50565b600081359050611f0481611ede565b92915050565b60008060408385031215611f2157611f20611c9f565b5b6000611f2f85828601611ef5565b9250506020611f4085828601611e40565b9150509250929050565b600080600060608486031215611f6357611f62611c9f565b5b6000611f7186828701611ef5565b9350506020611f8286828701611ef5565b9250506040611f9386828701611e40565b9150509250925092565b600080fd5b600080fd5b7f4e487b7100000000000000000000000000000000000000000000000000000000600052604160045260246000fd5b611fdf82611db3565b810181811067ffffffffffffffff82111715611ffe57611ffd611fa7565b5b80604052505050565b6000612011611c95565b905061201d8282611fd6565b919050565b600067ffffffffffffffff82111561203d5761203c611fa7565b5b61204682611db3565b9050602081019050919050565b82818337600083830152505050565b600061207561207084612022565b612007565b90508281526020810184848401111561209157612090611fa2565b5b61209c848285612053565b509392505050565b600082601f8301126120b9576120b8611f9d565b5b81356120c9848260208601612062565b91505092915050565b6000602082840312156120e8576120e7611c9f565b5b600082013567ffffffffffffffff81111561210657612105611ca4565b5b612112848285016120a4565b91505092915050565b60006020828403121561213157612130611c9f565b5b600061213f84828501611ef5565b91505092915050565b61215181611e1f565b82525050565b600060208201905061216c6000830184612148565b92915050565b61217b81611d2e565b811461218657600080fd5b50565b60008135905061219881612172565b92915050565b600080604083850312156121b5576121b4611c9f565b5b60006121c385828601611ef5565b92505060206121d485828601612189565b9150509250929050565b600067ffffffffffffffff8211156121f9576121f8611fa7565b5b61220282611db3565b9050602081019050919050565b600061222261221d846121de565b612007565b90508281526020810184848401111561223e5761223d611fa2565b5b612249848285612053565b509392505050565b600082601f83011261226657612265611f9d565b5b813561227684826020860161220f565b91505092915050565b6000806000806080858703121561229957612298611c9f565b5b60006122a787828801611ef5565b94505060206122b887828801611ef5565b93505060406122c987828801611e40565b925050606085013567ffffffffffffffff8111156122ea576122e9611ca4565b5b6122f687828801612251565b91505092959194509250565b6000806040838503121561231957612318611c9f565b5b600061232785828601611ef5565b925050602061233885828601611ef5565b9150509250929050565b7f4e487b7100000000000000000000000000000000000000000000000000000000600052602260045260246000fd5b6000600282049050600182168061238957607f821691505b6020821081141561239d5761239c612342565b5b50919050565b7f4552433732313a20617070726f76656420717565727920666f72206e6f6e657860008201527f697374656e7420746f6b656e0000000000000000000000000000000000000000602082015250565b60006123ff602c83611d6f565b915061240a826123a3565b604082019050919050565b6000602082019050818103600083015261242e816123f2565b9050919050565b7f4552433732313a20617070726f76616c20746f2063757272656e74206f776e6560008201527f7200000000000000000000000000000000000000000000000000000000000000602082015250565b6000612491602183611d6f565b915061249c82612435565b604082019050919050565b600060208201905081810360008301526124c081612484565b9050919050565b7f4552433732313a20617070726f76652063616c6c6572206973206e6f74206f7760008201527f6e6572206e6f7220617070726f76656420666f7220616c6c0000000000000000602082015250565b6000612523603883611d6f565b915061252e826124c7565b604082019050919050565b6000602082019050818103600083015261255281612516565b9050919050565b7f4552433732313a207472616e736665722063616c6c6572206973206e6f74206f60008201527f776e6572206e6f7220617070726f766564000000000000000000000000000000602082015250565b60006125b5603183611d6f565b91506125c082612559565b604082019050919050565b600060208201905081810360008301526125e4816125a8565b9050919050565b7f4f776e61626c653a2063616c6c6572206973206e6f7420746865206f776e6572600082015250565b6000612621602083611d6f565b915061262c826125eb565b602082019050919050565b6000602082019050818103600083015261265081612614565b9050919050565b7f4552433732313a206f776e657220717565727920666f72206e6f6e657869737460008201527f656e7420746f6b656e0000000000000000000000000000000000000000000000602082015250565b60006126b3602983611d6f565b91506126be82612657565b604082019050919050565b600060208201905081810360008301526126e2816126a6565b9050919050565b7f4552433732313a2062616c616e636520717565727920666f7220746865207a6560008201527f726f206164647265737300000000000000000000000000000000000000000000602082015250565b6000612745602a83611d6f565b9150612750826126e9565b604082019050919050565b6000602082019050818103600083015261277481612738565b9050919050565b7f4552433732313a20617070726f766520746f2063616c6c657200000000000000600082015250565b60006127b1601983611d6f565b91506127bc8261277b565b602082019050919050565b600060208201905081810360008301526127e0816127a4565b9050919050565b7f4552433732314d657461646174613a2055524920717565727920666f72206e6f60008201527f6e6578697374656e7420746f6b656e0000000000000000000000000000000000602082015250565b6000612843602f83611d6f565b915061284e826127e7565b604082019050919050565b6000602082019050818103600083015261287281612836565b9050919050565b600081905092915050565b600061288f82611d64565b6128998185612879565b93506128a9818560208601611d80565b80840191505092915050565b60006128c18285612884565b91506128cd8284612884565b91508190509392505050565b7f4f776e61626c653a206e6577206f776e657220697320746865207a65726f206160008201527f6464726573730000000000000000000000000000000000000000000000000000602082015250565b6000612935602683611d6f565b9150612940826128d9565b604082019050919050565b6000602082019050818103600083015261296481612928565b9050919050565b7f4552433732313a206f70657261746f7220717565727920666f72206e6f6e657860008201527f697374656e7420746f6b656e0000000000000000000000000000000000000000602082015250565b60006129c7602c83611d6f565b91506129d28261296b565b604082019050919050565b600060208201905081810360008301526129f6816129ba565b9050919050565b7f4552433732313a207472616e73666572206f6620746f6b656e2074686174206960008201527f73206e6f74206f776e0000000000000000000000000000000000000000000000602082015250565b6000612a59602983611d6f565b9150612a64826129fd565b604082019050919050565b60006020820190508181036000830152612a8881612a4c565b9050919050565b7f4552433732313a207472616e7366657220746f20746865207a65726f2061646460008201527f7265737300000000000000000000000000000000000000000000000000000000602082015250565b6000612aeb602483611d6f565b9150612af682612a8f565b604082019050919050565b60006020820190508181036000830152612b1a81612ade565b9050919050565b7f4e487b7100000000000000000000000000000000000000000000000000000000600052601160045260246000fd5b6000612b5b82611e1f565b9150612b6683611e1f565b925082821015612b7957612b78612b21565b5b828203905092915050565b6000612b8f82611e1f565b9150612b9a83611e1f565b9250827fffffffffffffffffffffffffffffffffffffffffffffffffffffffffffffffff03821115612bcf57612bce612b21565b5b828201905092915050565b7f4552433732314d657461646174613a2055524920736574206f66206e6f6e657860008201527f697374656e7420746f6b656e0000000000000000000000000000000000000000602082015250565b6000612c36602c83611d6f565b9150612c4182612bda565b604082019050919050565b60006020820190508181036000830152612c6581612c29565b9050919050565b7f4552433732313a207472616e7366657220746f206e6f6e20455243373231526560008201527f63656976657220696d706c656d656e7465720000000000000000000000000000602082015250565b6000612cc8603283611d6f565b9150612cd382612c6c565b604082019050919050565b60006020820190508181036000830152612cf781612cbb565b9050919050565b6000612d0982611e1f565b91507fffffffffffffffffffffffffffffffffffffffffffffffffffffffffffffffff821415612d3c57612d3b612b21565b5b600182019050919050565b7f4e487b7100000000000000000000000000000000000000000000000000000000600052601260045260246000fd5b6000612d8182611e1f565b9150612d8c83611e1f565b925082612d9c57612d9b612d47565b5b828204905092915050565b6000612db282611e1f565b9150612dbd83611e1f565b925082612dcd57612dcc612d47565b5b828206905092915050565b7f4e487b7100000000000000000000000000000000000000000000000000000000600052603260045260246000fd5b600081519050919050565b600082825260208201905092915050565b6000612e2e82612e07565b612e388185612e12565b9350612e48818560208601611d80565b612e5181611db3565b840191505092915050565b6000608082019050612e716000830187611eb4565b612e7e6020830186611eb4565b612e8b6040830185612148565b8181036060830152612e9d8184612e23565b905095945050505050565b600081519050612eb781611cd5565b92915050565b600060208284031215612ed357612ed2611c9f565b5b6000612ee184828501612ea8565b91505092915050565b7f4552433732313a206d696e7420746f20746865207a65726f2061646472657373600082015250565b6000612f20602083611d6f565b9150612f2b82612eea565b602082019050919050565b60006020820190508181036000830152612f4f81612f13565b9050919050565b7f4552433732313a20746f6b656e20616c7265616479206d696e74656400000000600082015250565b6000612f8c601c83611d6f565b9150612f9782612f56565b602082019050919050565b60006020820190508181036000830152612fbb81612f7f565b905091905056fea264697066735822122005754e383dae22e859799460f5607db35b106e0a89cbca3a8e09951f7b0f113064736f6c63430008090033",
  "immutableReferences": {},
  "source": "// SPDX-License-Identifier: MIT\npragma solidity >=0.4.22 <0.9.0;\n\nimport \"@openzeppelin/contracts/token/ERC721/ERC721.sol\";\nimport \"@openzeppelin/contracts/utils/Counters.sol\";\nimport \"@openzeppelin/contracts/access/Ownable.sol\";\n\ncontract artCollectible is Ownable, ERC721 {\n    using Counters for Counters.Counter;\n    Counters.Counter private _tokenIds;\n    using Strings for uint256;\n    // Optional mapping for token URIs\n    mapping(uint256 => string) private _tokenURIs;\n\n    // Base URI\n    string private _baseURIextended;\n\n    constructor() public ERC721(\"Tokens-X\", \"TKX\") {}\n\n    // https://forum.openzeppelin.com/t/function-settokenuri-in-erc721-is-gone-with-pragma-0-8-0/5978/3\n    function setBaseURI(string memory baseURI_) external onlyOwner {\n        _baseURIextended = baseURI_;\n    }\n\n    function _setTokenURI(uint256 tokenId, string memory _tokenURI)\n        internal\n        virtual\n    {\n        require(\n            _exists(tokenId),\n            \"ERC721Metadata: URI set of nonexistent token\"\n        );\n        _tokenURIs[tokenId] = _tokenURI;\n    }\n\n    function _baseURI() internal view virtual override returns (string memory) {\n        return _baseURIextended;\n    }\n\n    function tokenURI(uint256 tokenId)\n        public\n        view\n        virtual\n        override\n        returns (string memory)\n    {\n        require(\n            _exists(tokenId),\n            \"ERC721Metadata: URI query for nonexistent token\"\n        );\n\n        string memory _tokenURI = _tokenURIs[tokenId];\n        string memory base = _baseURI();\n\n        // If there is no base URI, return the token URI.\n        if (bytes(base).length == 0) {\n            return _tokenURI;\n        }\n        // If both are set, concatenate the baseURI and tokenURI (via abi.encodePacked).\n        if (bytes(_tokenURI).length > 0) {\n            return string(abi.encodePacked(base, _tokenURI));\n        }\n        // If there is a baseURI but no tokenURI, concatenate the tokenID to the baseURI.\n        return string(abi.encodePacked(base, tokenId.toString()));\n    }\n\n    function claimItem(string memory tokenURI) public returns (uint256) {\n        _tokenIds.increment();\n        uint256 newItemId = _tokenIds.current();\n        _safeMint(msg.sender, newItemId);\n        _setTokenURI(newItemId, tokenURI);\n        return newItemId;\n    }\n}\n",
  "sourcePath": "/home/naganithin/nft/contracts/artCollectible.sol",
  "compiler": {
    "name": "solc",
    "version": "0.8.9+commit.e5eed63a.Emscripten.clang"
  },
  "schemaVersion": "3.4.3",
  "updatedAt": "2021-10-07T05:16:08.733Z",
  "devdoc": {
    "kind": "dev",
    "methods": {
      "approve(address,uint256)": {
        "details": "See {IERC721-approve}."
      },
      "balanceOf(address)": {
        "details": "See {IERC721-balanceOf}."
      },
      "getApproved(uint256)": {
        "details": "See {IERC721-getApproved}."
      },
      "isApprovedForAll(address,address)": {
        "details": "See {IERC721-isApprovedForAll}."
      },
      "name()": {
        "details": "See {IERC721Metadata-name}."
      },
      "owner()": {
        "details": "Returns the address of the current owner."
      },
      "ownerOf(uint256)": {
        "details": "See {IERC721-ownerOf}."
      },
      "renounceOwnership()": {
        "details": "Leaves the contract without owner. It will not be possible to call `onlyOwner` functions anymore. Can only be called by the current owner. NOTE: Renouncing ownership will leave the contract without an owner, thereby removing any functionality that is only available to the owner."
      },
      "safeTransferFrom(address,address,uint256)": {
        "details": "See {IERC721-safeTransferFrom}."
      },
      "safeTransferFrom(address,address,uint256,bytes)": {
        "details": "See {IERC721-safeTransferFrom}."
      },
      "setApprovalForAll(address,bool)": {
        "details": "See {IERC721-setApprovalForAll}."
      },
      "supportsInterface(bytes4)": {
        "details": "See {IERC165-supportsInterface}."
      },
      "symbol()": {
        "details": "See {IERC721Metadata-symbol}."
      },
      "tokenURI(uint256)": {
        "details": "See {IERC721Metadata-tokenURI}."
      },
      "transferFrom(address,address,uint256)": {
        "details": "See {IERC721-transferFrom}."
      },
      "transferOwnership(address)": {
        "details": "Transfers ownership of the contract to a new account (`newOwner`). Can only be called by the current owner."
      }
    },
    "version": 1
  },
  "userdoc": {
    "kind": "user",
    "methods": {},
    "version": 1
  }
}